{
	"contracts/Identity.sol": {
		"Identity": {
			"abi": [
				{
					"inputs": [
						{
							"internalType": "uint256",
							"name": "_idNumber",
							"type": "uint256"
						},
						{
							"internalType": "bool",
							"name": "_isworking",
							"type": "bool"
						},
						{
							"internalType": "string",
							"name": "_name",
							"type": "string"
						}
					],
					"stateMutability": "nonpayable",
					"type": "constructor"
				},
				{
					"inputs": [],
					"name": "idNumber",
					"outputs": [
						{
							"internalType": "uint256",
							"name": "",
							"type": "uint256"
						}
					],
					"stateMutability": "view",
					"type": "function"
				},
				{
					"inputs": [],
					"name": "isWorking",
					"outputs": [
						{
							"internalType": "bool",
							"name": "",
							"type": "bool"
						}
					],
					"stateMutability": "view",
					"type": "function"
				},
				{
					"inputs": [],
					"name": "name",
					"outputs": [
						{
							"internalType": "string",
							"name": "",
							"type": "string"
						}
					],
					"stateMutability": "view",
					"type": "function"
				},
				{
					"inputs": [],
					"name": "wallet",
					"outputs": [
						{
							"internalType": "address",
							"name": "",
							"type": "address"
						}
					],
					"stateMutability": "view",
					"type": "function"
				}
			],
			"devdoc": {
				"kind": "dev",
				"methods": {},
				"version": 1
			},
			"evm": {
				"assembly": "    /* \"contracts/Identity.sol\":76:431  contract Identity {\r... */\n  mstore(0x40, 0x80)\n    /* \"contracts/Identity.sol\":215:422  constructor(uint _idNumber, bool _isworking, string memory _name ) {\r... */\n  callvalue\n  dup1\n  iszero\n  tag_1\n  jumpi\n  0x00\n  dup1\n  revert\ntag_1:\n  pop\n  mload(0x40)\n  sub(codesize, bytecodeSize)\n  dup1\n  bytecodeSize\n  dup4\n  codecopy\n  dup2\n  dup2\n  add\n  0x40\n  mstore\n  dup2\n  add\n  swap1\n  tag_2\n  swap2\n  swap1\n  tag_3\n  jump\t// in\ntag_2:\n    /* \"contracts/Identity.sol\":306:315  _idNumber */\n  dup3\n    /* \"contracts/Identity.sol\":297:305  idNumber */\n  0x00\n    /* \"contracts/Identity.sol\":297:315  idNumber=_idNumber */\n  dup2\n  swap1\n  sstore\n  pop\n    /* \"contracts/Identity.sol\":340:350  _isworking */\n  dup2\n    /* \"contracts/Identity.sol\":330:339  isWorking */\n  0x01\n  0x00\n    /* \"contracts/Identity.sol\":330:350  isWorking=_isworking */\n  0x0100\n  exp\n  dup2\n  sload\n  dup2\n  0xff\n  mul\n  not\n  and\n  swap1\n  dup4\n  iszero\n  iszero\n  mul\n  or\n  swap1\n  sstore\n  pop\n    /* \"contracts/Identity.sol\":370:375  _name */\n  dup1\n    /* \"contracts/Identity.sol\":365:369  name */\n  0x02\n    /* \"contracts/Identity.sol\":365:375  name=_name */\n  swap1\n  dup1\n  mload\n  swap1\n  0x20\n  add\n  swap1\n  tag_6\n  swap3\n  swap2\n  swap1\n  tag_7\n  jump\t// in\ntag_6:\n  pop\n    /* \"contracts/Identity.sol\":397:407  msg.sender */\n  caller\n    /* \"contracts/Identity.sol\":390:396  wallet */\n  0x03\n  0x00\n    /* \"contracts/Identity.sol\":390:407  wallet=msg.sender */\n  0x0100\n  exp\n  dup2\n  sload\n  dup2\n  0xffffffffffffffffffffffffffffffffffffffff\n  mul\n  not\n  and\n  swap1\n  dup4\n  0xffffffffffffffffffffffffffffffffffffffff\n  and\n  mul\n  or\n  swap1\n  sstore\n  pop\n    /* \"contracts/Identity.sol\":215:422  constructor(uint _idNumber, bool _isworking, string memory _name ) {\r... */\n  pop\n  pop\n  pop\n    /* \"contracts/Identity.sol\":76:431  contract Identity {\r... */\n  jump(tag_8)\ntag_7:\n  dup3\n  dup1\n  sload\n  tag_9\n  swap1\n  tag_10\n  jump\t// in\ntag_9:\n  swap1\n  0x00\n  mstore\n  keccak256(0x00, 0x20)\n  swap1\n  0x1f\n  add\n  0x20\n  swap1\n  div\n  dup2\n  add\n  swap3\n  dup3\n  tag_12\n  jumpi\n  0x00\n  dup6\n  sstore\n  jump(tag_11)\ntag_12:\n  dup3\n  0x1f\n  lt\n  tag_13\n  jumpi\n  dup1\n  mload\n  not(0xff)\n  and\n  dup4\n  dup1\n  add\n  or\n  dup6\n  sstore\n  jump(tag_11)\ntag_13:\n  dup3\n  dup1\n  add\n  0x01\n  add\n  dup6\n  sstore\n  dup3\n  iszero\n  tag_11\n  jumpi\n  swap2\n  dup3\n  add\ntag_14:\n  dup3\n  dup2\n  gt\n  iszero\n  tag_15\n  jumpi\n  dup3\n  mload\n  dup3\n  sstore\n  swap2\n  0x20\n  add\n  swap2\n  swap1\n  0x01\n  add\n  swap1\n  jump(tag_14)\ntag_15:\ntag_11:\n  pop\n  swap1\n  pop\n  tag_16\n  swap2\n  swap1\n  tag_17\n  jump\t// in\ntag_16:\n  pop\n  swap1\n  jump\t// out\ntag_17:\ntag_18:\n  dup1\n  dup3\n  gt\n  iszero\n  tag_19\n  jumpi\n  0x00\n  dup2\n  0x00\n  swap1\n  sstore\n  pop\n  0x01\n  add\n  jump(tag_18)\ntag_19:\n  pop\n  swap1\n  jump\t// out\n    /* \"#utility.yul\":7:428   */\ntag_21:\n    /* \"#utility.yul\":96:101   */\n  0x00\n    /* \"#utility.yul\":121:187   */\n  tag_23\n    /* \"#utility.yul\":137:186   */\n  tag_24\n    /* \"#utility.yul\":179:185   */\n  dup5\n    /* \"#utility.yul\":137:186   */\n  tag_25\n  jump\t// in\ntag_24:\n    /* \"#utility.yul\":121:187   */\n  tag_26\n  jump\t// in\ntag_23:\n    /* \"#utility.yul\":112:187   */\n  swap1\n  pop\n    /* \"#utility.yul\":210:216   */\n  dup3\n    /* \"#utility.yul\":203:208   */\n  dup2\n    /* \"#utility.yul\":196:217   */\n  mstore\n    /* \"#utility.yul\":248:252   */\n  0x20\n    /* \"#utility.yul\":241:246   */\n  dup2\n    /* \"#utility.yul\":237:253   */\n  add\n    /* \"#utility.yul\":286:289   */\n  dup5\n    /* \"#utility.yul\":277:283   */\n  dup5\n    /* \"#utility.yul\":272:275   */\n  dup5\n    /* \"#utility.yul\":268:284   */\n  add\n    /* \"#utility.yul\":265:290   */\n  gt\n    /* \"#utility.yul\":262:374   */\n  iszero\n  tag_27\n  jumpi\n    /* \"#utility.yul\":293:372   */\n  tag_28\n  tag_29\n  jump\t// in\ntag_28:\n    /* \"#utility.yul\":262:374   */\ntag_27:\n    /* \"#utility.yul\":383:422   */\n  tag_30\n    /* \"#utility.yul\":415:421   */\n  dup5\n    /* \"#utility.yul\":410:413   */\n  dup3\n    /* \"#utility.yul\":405:408   */\n  dup6\n    /* \"#utility.yul\":383:422   */\n  tag_31\n  jump\t// in\ntag_30:\n    /* \"#utility.yul\":102:428   */\n  pop\n    /* \"#utility.yul\":7:428   */\n  swap4\n  swap3\n  pop\n  pop\n  pop\n  jump\t// out\n    /* \"#utility.yul\":434:571   */\ntag_32:\n    /* \"#utility.yul\":488:493   */\n  0x00\n    /* \"#utility.yul\":519:525   */\n  dup2\n    /* \"#utility.yul\":513:526   */\n  mload\n    /* \"#utility.yul\":504:526   */\n  swap1\n  pop\n    /* \"#utility.yul\":535:565   */\n  tag_34\n    /* \"#utility.yul\":559:564   */\n  dup2\n    /* \"#utility.yul\":535:565   */\n  tag_35\n  jump\t// in\ntag_34:\n    /* \"#utility.yul\":434:571   */\n  swap3\n  swap2\n  pop\n  pop\n  jump\t// out\n    /* \"#utility.yul\":591:946   */\ntag_36:\n    /* \"#utility.yul\":658:663   */\n  0x00\n    /* \"#utility.yul\":707:710   */\n  dup3\n    /* \"#utility.yul\":700:704   */\n  0x1f\n    /* \"#utility.yul\":692:698   */\n  dup4\n    /* \"#utility.yul\":688:705   */\n  add\n    /* \"#utility.yul\":684:711   */\n  slt\n    /* \"#utility.yul\":674:796   */\n  tag_38\n  jumpi\n    /* \"#utility.yul\":715:794   */\n  tag_39\n  tag_40\n  jump\t// in\ntag_39:\n    /* \"#utility.yul\":674:796   */\ntag_38:\n    /* \"#utility.yul\":825:831   */\n  dup2\n    /* \"#utility.yul\":819:832   */\n  mload\n    /* \"#utility.yul\":850:940   */\n  tag_41\n    /* \"#utility.yul\":936:939   */\n  dup5\n    /* \"#utility.yul\":928:934   */\n  dup3\n    /* \"#utility.yul\":921:925   */\n  0x20\n    /* \"#utility.yul\":913:919   */\n  dup7\n    /* \"#utility.yul\":909:926   */\n  add\n    /* \"#utility.yul\":850:940   */\n  tag_21\n  jump\t// in\ntag_41:\n    /* \"#utility.yul\":841:940   */\n  swap2\n  pop\n    /* \"#utility.yul\":664:946   */\n  pop\n    /* \"#utility.yul\":591:946   */\n  swap3\n  swap2\n  pop\n  pop\n  jump\t// out\n    /* \"#utility.yul\":952:1095   */\ntag_42:\n    /* \"#utility.yul\":1009:1014   */\n  0x00\n    /* \"#utility.yul\":1040:1046   */\n  dup2\n    /* \"#utility.yul\":1034:1047   */\n  mload\n    /* \"#utility.yul\":1025:1047   */\n  swap1\n  pop\n    /* \"#utility.yul\":1056:1089   */\n  tag_44\n    /* \"#utility.yul\":1083:1088   */\n  dup2\n    /* \"#utility.yul\":1056:1089   */\n  tag_45\n  jump\t// in\ntag_44:\n    /* \"#utility.yul\":952:1095   */\n  swap3\n  swap2\n  pop\n  pop\n  jump\t// out\n    /* \"#utility.yul\":1101:1931   */\ntag_3:\n    /* \"#utility.yul\":1196:1202   */\n  0x00\n    /* \"#utility.yul\":1204:1210   */\n  dup1\n    /* \"#utility.yul\":1212:1218   */\n  0x00\n    /* \"#utility.yul\":1261:1263   */\n  0x60\n    /* \"#utility.yul\":1249:1258   */\n  dup5\n    /* \"#utility.yul\":1240:1247   */\n  dup7\n    /* \"#utility.yul\":1236:1259   */\n  sub\n    /* \"#utility.yul\":1232:1264   */\n  slt\n    /* \"#utility.yul\":1229:1348   */\n  iszero\n  tag_47\n  jumpi\n    /* \"#utility.yul\":1267:1346   */\n  tag_48\n  tag_49\n  jump\t// in\ntag_48:\n    /* \"#utility.yul\":1229:1348   */\ntag_47:\n    /* \"#utility.yul\":1387:1388   */\n  0x00\n    /* \"#utility.yul\":1412:1476   */\n  tag_50\n    /* \"#utility.yul\":1468:1475   */\n  dup7\n    /* \"#utility.yul\":1459:1465   */\n  dup3\n    /* \"#utility.yul\":1448:1457   */\n  dup8\n    /* \"#utility.yul\":1444:1466   */\n  add\n    /* \"#utility.yul\":1412:1476   */\n  tag_42\n  jump\t// in\ntag_50:\n    /* \"#utility.yul\":1402:1476   */\n  swap4\n  pop\n    /* \"#utility.yul\":1358:1486   */\n  pop\n    /* \"#utility.yul\":1525:1527   */\n  0x20\n    /* \"#utility.yul\":1551:1612   */\n  tag_51\n    /* \"#utility.yul\":1604:1611   */\n  dup7\n    /* \"#utility.yul\":1595:1601   */\n  dup3\n    /* \"#utility.yul\":1584:1593   */\n  dup8\n    /* \"#utility.yul\":1580:1602   */\n  add\n    /* \"#utility.yul\":1551:1612   */\n  tag_32\n  jump\t// in\ntag_51:\n    /* \"#utility.yul\":1541:1612   */\n  swap3\n  pop\n    /* \"#utility.yul\":1496:1622   */\n  pop\n    /* \"#utility.yul\":1682:1684   */\n  0x40\n    /* \"#utility.yul\":1671:1680   */\n  dup5\n    /* \"#utility.yul\":1667:1685   */\n  add\n    /* \"#utility.yul\":1661:1686   */\n  mload\n    /* \"#utility.yul\":1713:1731   */\n  0xffffffffffffffff\n    /* \"#utility.yul\":1705:1711   */\n  dup2\n    /* \"#utility.yul\":1702:1732   */\n  gt\n    /* \"#utility.yul\":1699:1816   */\n  iszero\n  tag_52\n  jumpi\n    /* \"#utility.yul\":1735:1814   */\n  tag_53\n  tag_54\n  jump\t// in\ntag_53:\n    /* \"#utility.yul\":1699:1816   */\ntag_52:\n    /* \"#utility.yul\":1840:1914   */\n  tag_55\n    /* \"#utility.yul\":1906:1913   */\n  dup7\n    /* \"#utility.yul\":1897:1903   */\n  dup3\n    /* \"#utility.yul\":1886:1895   */\n  dup8\n    /* \"#utility.yul\":1882:1904   */\n  add\n    /* \"#utility.yul\":1840:1914   */\n  tag_36\n  jump\t// in\ntag_55:\n    /* \"#utility.yul\":1830:1914   */\n  swap2\n  pop\n    /* \"#utility.yul\":1632:1924   */\n  pop\n    /* \"#utility.yul\":1101:1931   */\n  swap3\n  pop\n  swap3\n  pop\n  swap3\n  jump\t// out\n    /* \"#utility.yul\":1937:2066   */\ntag_26:\n    /* \"#utility.yul\":1971:1977   */\n  0x00\n    /* \"#utility.yul\":1998:2018   */\n  tag_57\n  tag_58\n  jump\t// in\ntag_57:\n    /* \"#utility.yul\":1988:2018   */\n  swap1\n  pop\n    /* \"#utility.yul\":2027:2060   */\n  tag_59\n    /* \"#utility.yul\":2055:2059   */\n  dup3\n    /* \"#utility.yul\":2047:2053   */\n  dup3\n    /* \"#utility.yul\":2027:2060   */\n  tag_60\n  jump\t// in\ntag_59:\n    /* \"#utility.yul\":1937:2066   */\n  swap2\n  swap1\n  pop\n  jump\t// out\n    /* \"#utility.yul\":2072:2147   */\ntag_58:\n    /* \"#utility.yul\":2105:2111   */\n  0x00\n    /* \"#utility.yul\":2138:2140   */\n  0x40\n    /* \"#utility.yul\":2132:2141   */\n  mload\n    /* \"#utility.yul\":2122:2141   */\n  swap1\n  pop\n    /* \"#utility.yul\":2072:2147   */\n  swap1\n  jump\t// out\n    /* \"#utility.yul\":2153:2461   */\ntag_25:\n    /* \"#utility.yul\":2215:2219   */\n  0x00\n    /* \"#utility.yul\":2305:2323   */\n  0xffffffffffffffff\n    /* \"#utility.yul\":2297:2303   */\n  dup3\n    /* \"#utility.yul\":2294:2324   */\n  gt\n    /* \"#utility.yul\":2291:2347   */\n  iszero\n  tag_63\n  jumpi\n    /* \"#utility.yul\":2327:2345   */\n  tag_64\n  tag_65\n  jump\t// in\ntag_64:\n    /* \"#utility.yul\":2291:2347   */\ntag_63:\n    /* \"#utility.yul\":2365:2394   */\n  tag_66\n    /* \"#utility.yul\":2387:2393   */\n  dup3\n    /* \"#utility.yul\":2365:2394   */\n  tag_67\n  jump\t// in\ntag_66:\n    /* \"#utility.yul\":2357:2394   */\n  swap1\n  pop\n    /* \"#utility.yul\":2449:2453   */\n  0x20\n    /* \"#utility.yul\":2443:2447   */\n  dup2\n    /* \"#utility.yul\":2439:2454   */\n  add\n    /* \"#utility.yul\":2431:2454   */\n  swap1\n  pop\n    /* \"#utility.yul\":2153:2461   */\n  swap2\n  swap1\n  pop\n  jump\t// out\n    /* \"#utility.yul\":2467:2557   */\ntag_68:\n    /* \"#utility.yul\":2501:2508   */\n  0x00\n    /* \"#utility.yul\":2544:2549   */\n  dup2\n    /* \"#utility.yul\":2537:2550   */\n  iszero\n    /* \"#utility.yul\":2530:2551   */\n  iszero\n    /* \"#utility.yul\":2519:2551   */\n  swap1\n  pop\n    /* \"#utility.yul\":2467:2557   */\n  swap2\n  swap1\n  pop\n  jump\t// out\n    /* \"#utility.yul\":2563:2640   */\ntag_70:\n    /* \"#utility.yul\":2600:2607   */\n  0x00\n    /* \"#utility.yul\":2629:2634   */\n  dup2\n    /* \"#utility.yul\":2618:2634   */\n  swap1\n  pop\n    /* \"#utility.yul\":2563:2640   */\n  swap2\n  swap1\n  pop\n  jump\t// out\n    /* \"#utility.yul\":2646:2953   */\ntag_31:\n    /* \"#utility.yul\":2714:2715   */\n  0x00\n    /* \"#utility.yul\":2724:2837   */\ntag_73:\n    /* \"#utility.yul\":2738:2744   */\n  dup4\n    /* \"#utility.yul\":2735:2736   */\n  dup2\n    /* \"#utility.yul\":2732:2745   */\n  lt\n    /* \"#utility.yul\":2724:2837   */\n  iszero\n  tag_75\n  jumpi\n    /* \"#utility.yul\":2823:2824   */\n  dup1\n    /* \"#utility.yul\":2818:2821   */\n  dup3\n    /* \"#utility.yul\":2814:2825   */\n  add\n    /* \"#utility.yul\":2808:2826   */\n  mload\n    /* \"#utility.yul\":2804:2805   */\n  dup2\n    /* \"#utility.yul\":2799:2802   */\n  dup5\n    /* \"#utility.yul\":2795:2806   */\n  add\n    /* \"#utility.yul\":2788:2827   */\n  mstore\n    /* \"#utility.yul\":2760:2762   */\n  0x20\n    /* \"#utility.yul\":2757:2758   */\n  dup2\n    /* \"#utility.yul\":2753:2763   */\n  add\n    /* \"#utility.yul\":2748:2763   */\n  swap1\n  pop\n    /* \"#utility.yul\":2724:2837   */\n  jump(tag_73)\ntag_75:\n    /* \"#utility.yul\":2855:2861   */\n  dup4\n    /* \"#utility.yul\":2852:2853   */\n  dup2\n    /* \"#utility.yul\":2849:2862   */\n  gt\n    /* \"#utility.yul\":2846:2947   */\n  iszero\n  tag_76\n  jumpi\n    /* \"#utility.yul\":2935:2936   */\n  0x00\n    /* \"#utility.yul\":2926:2932   */\n  dup5\n    /* \"#utility.yul\":2921:2924   */\n  dup5\n    /* \"#utility.yul\":2917:2933   */\n  add\n    /* \"#utility.yul\":2910:2937   */\n  mstore\n    /* \"#utility.yul\":2846:2947   */\ntag_76:\n    /* \"#utility.yul\":2695:2953   */\n  pop\n    /* \"#utility.yul\":2646:2953   */\n  pop\n  pop\n  pop\n  jump\t// out\n    /* \"#utility.yul\":2959:3279   */\ntag_10:\n    /* \"#utility.yul\":3003:3009   */\n  0x00\n    /* \"#utility.yul\":3040:3041   */\n  0x02\n    /* \"#utility.yul\":3034:3038   */\n  dup3\n    /* \"#utility.yul\":3030:3042   */\n  div\n    /* \"#utility.yul\":3020:3042   */\n  swap1\n  pop\n    /* \"#utility.yul\":3087:3088   */\n  0x01\n    /* \"#utility.yul\":3081:3085   */\n  dup3\n    /* \"#utility.yul\":3077:3089   */\n  and\n    /* \"#utility.yul\":3108:3126   */\n  dup1\n    /* \"#utility.yul\":3098:3179   */\n  tag_78\n  jumpi\n    /* \"#utility.yul\":3164:3168   */\n  0x7f\n    /* \"#utility.yul\":3156:3162   */\n  dup3\n    /* \"#utility.yul\":3152:3169   */\n  and\n    /* \"#utility.yul\":3142:3169   */\n  swap2\n  pop\n    /* \"#utility.yul\":3098:3179   */\ntag_78:\n    /* \"#utility.yul\":3226:3228   */\n  0x20\n    /* \"#utility.yul\":3218:3224   */\n  dup3\n    /* \"#utility.yul\":3215:3229   */\n  lt\n    /* \"#utility.yul\":3195:3213   */\n  dup2\n    /* \"#utility.yul\":3192:3230   */\n  eq\n    /* \"#utility.yul\":3189:3273   */\n  iszero\n  tag_79\n  jumpi\n    /* \"#utility.yul\":3245:3263   */\n  tag_80\n  tag_81\n  jump\t// in\ntag_80:\n    /* \"#utility.yul\":3189:3273   */\ntag_79:\n    /* \"#utility.yul\":3010:3279   */\n  pop\n    /* \"#utility.yul\":2959:3279   */\n  swap2\n  swap1\n  pop\n  jump\t// out\n    /* \"#utility.yul\":3285:3566   */\ntag_60:\n    /* \"#utility.yul\":3368:3395   */\n  tag_83\n    /* \"#utility.yul\":3390:3394   */\n  dup3\n    /* \"#utility.yul\":3368:3395   */\n  tag_67\n  jump\t// in\ntag_83:\n    /* \"#utility.yul\":3360:3366   */\n  dup2\n    /* \"#utility.yul\":3356:3396   */\n  add\n    /* \"#utility.yul\":3498:3504   */\n  dup2\n    /* \"#utility.yul\":3486:3496   */\n  dup2\n    /* \"#utility.yul\":3483:3505   */\n  lt\n    /* \"#utility.yul\":3462:3480   */\n  0xffffffffffffffff\n    /* \"#utility.yul\":3450:3460   */\n  dup3\n    /* \"#utility.yul\":3447:3481   */\n  gt\n    /* \"#utility.yul\":3444:3506   */\n  or\n    /* \"#utility.yul\":3441:3529   */\n  iszero\n  tag_84\n  jumpi\n    /* \"#utility.yul\":3509:3527   */\n  tag_85\n  tag_65\n  jump\t// in\ntag_85:\n    /* \"#utility.yul\":3441:3529   */\ntag_84:\n    /* \"#utility.yul\":3549:3559   */\n  dup1\n    /* \"#utility.yul\":3545:3547   */\n  0x40\n    /* \"#utility.yul\":3538:3560   */\n  mstore\n    /* \"#utility.yul\":3328:3566   */\n  pop\n    /* \"#utility.yul\":3285:3566   */\n  pop\n  pop\n  jump\t// out\n    /* \"#utility.yul\":3572:3752   */\ntag_81:\n    /* \"#utility.yul\":3620:3697   */\n  0x4e487b7100000000000000000000000000000000000000000000000000000000\n    /* \"#utility.yul\":3617:3618   */\n  0x00\n    /* \"#utility.yul\":3610:3698   */\n  mstore\n    /* \"#utility.yul\":3717:3721   */\n  0x22\n    /* \"#utility.yul\":3714:3715   */\n  0x04\n    /* \"#utility.yul\":3707:3722   */\n  mstore\n    /* \"#utility.yul\":3741:3745   */\n  0x24\n    /* \"#utility.yul\":3738:3739   */\n  0x00\n    /* \"#utility.yul\":3731:3746   */\n  revert\n    /* \"#utility.yul\":3758:3938   */\ntag_65:\n    /* \"#utility.yul\":3806:3883   */\n  0x4e487b7100000000000000000000000000000000000000000000000000000000\n    /* \"#utility.yul\":3803:3804   */\n  0x00\n    /* \"#utility.yul\":3796:3884   */\n  mstore\n    /* \"#utility.yul\":3903:3907   */\n  0x41\n    /* \"#utility.yul\":3900:3901   */\n  0x04\n    /* \"#utility.yul\":3893:3908   */\n  mstore\n    /* \"#utility.yul\":3927:3931   */\n  0x24\n    /* \"#utility.yul\":3924:3925   */\n  0x00\n    /* \"#utility.yul\":3917:3932   */\n  revert\n    /* \"#utility.yul\":3944:4061   */\ntag_40:\n    /* \"#utility.yul\":4053:4054   */\n  0x00\n    /* \"#utility.yul\":4050:4051   */\n  dup1\n    /* \"#utility.yul\":4043:4055   */\n  revert\n    /* \"#utility.yul\":4067:4184   */\ntag_29:\n    /* \"#utility.yul\":4176:4177   */\n  0x00\n    /* \"#utility.yul\":4173:4174   */\n  dup1\n    /* \"#utility.yul\":4166:4178   */\n  revert\n    /* \"#utility.yul\":4190:4307   */\ntag_54:\n    /* \"#utility.yul\":4299:4300   */\n  0x00\n    /* \"#utility.yul\":4296:4297   */\n  dup1\n    /* \"#utility.yul\":4289:4301   */\n  revert\n    /* \"#utility.yul\":4313:4430   */\ntag_49:\n    /* \"#utility.yul\":4422:4423   */\n  0x00\n    /* \"#utility.yul\":4419:4420   */\n  dup1\n    /* \"#utility.yul\":4412:4424   */\n  revert\n    /* \"#utility.yul\":4436:4538   */\ntag_67:\n    /* \"#utility.yul\":4477:4483   */\n  0x00\n    /* \"#utility.yul\":4528:4530   */\n  0x1f\n    /* \"#utility.yul\":4524:4531   */\n  not\n    /* \"#utility.yul\":4519:4521   */\n  0x1f\n    /* \"#utility.yul\":4512:4517   */\n  dup4\n    /* \"#utility.yul\":4508:4522   */\n  add\n    /* \"#utility.yul\":4504:4532   */\n  and\n    /* \"#utility.yul\":4494:4532   */\n  swap1\n  pop\n    /* \"#utility.yul\":4436:4538   */\n  swap2\n  swap1\n  pop\n  jump\t// out\n    /* \"#utility.yul\":4544:4660   */\ntag_35:\n    /* \"#utility.yul\":4614:4635   */\n  tag_94\n    /* \"#utility.yul\":4629:4634   */\n  dup2\n    /* \"#utility.yul\":4614:4635   */\n  tag_68\n  jump\t// in\ntag_94:\n    /* \"#utility.yul\":4607:4612   */\n  dup2\n    /* \"#utility.yul\":4604:4636   */\n  eq\n    /* \"#utility.yul\":4594:4654   */\n  tag_95\n  jumpi\n    /* \"#utility.yul\":4650:4651   */\n  0x00\n    /* \"#utility.yul\":4647:4648   */\n  dup1\n    /* \"#utility.yul\":4640:4652   */\n  revert\n    /* \"#utility.yul\":4594:4654   */\ntag_95:\n    /* \"#utility.yul\":4544:4660   */\n  pop\n  jump\t// out\n    /* \"#utility.yul\":4666:4788   */\ntag_45:\n    /* \"#utility.yul\":4739:4763   */\n  tag_97\n    /* \"#utility.yul\":4757:4762   */\n  dup2\n    /* \"#utility.yul\":4739:4763   */\n  tag_70\n  jump\t// in\ntag_97:\n    /* \"#utility.yul\":4732:4737   */\n  dup2\n    /* \"#utility.yul\":4729:4764   */\n  eq\n    /* \"#utility.yul\":4719:4782   */\n  tag_98\n  jumpi\n    /* \"#utility.yul\":4778:4779   */\n  0x00\n    /* \"#utility.yul\":4775:4776   */\n  dup1\n    /* \"#utility.yul\":4768:4780   */\n  revert\n    /* \"#utility.yul\":4719:4782   */\ntag_98:\n    /* \"#utility.yul\":4666:4788   */\n  pop\n  jump\t// out\n    /* \"contracts/Identity.sol\":76:431  contract Identity {\r... */\ntag_8:\n  dataSize(sub_0)\n  dup1\n  dataOffset(sub_0)\n  0x00\n  codecopy\n  0x00\n  return\nstop\n\nsub_0: assembly {\n        /* \"contracts/Identity.sol\":76:431  contract Identity {\r... */\n      mstore(0x40, 0x80)\n      callvalue\n      dup1\n      iszero\n      tag_1\n      jumpi\n      0x00\n      dup1\n      revert\n    tag_1:\n      pop\n      jumpi(tag_2, lt(calldatasize, 0x04))\n      shr(0xe0, calldataload(0x00))\n      dup1\n      0x06fdde03\n      eq\n      tag_3\n      jumpi\n      dup1\n      0x099aea0a\n      eq\n      tag_4\n      jumpi\n      dup1\n      0x3f83ea3b\n      eq\n      tag_5\n      jumpi\n      dup1\n      0x521eb273\n      eq\n      tag_6\n      jumpi\n    tag_2:\n      0x00\n      dup1\n      revert\n        /* \"contracts/Identity.sol\":156:174  string public name */\n    tag_3:\n      tag_7\n      tag_8\n      jump\t// in\n    tag_7:\n      mload(0x40)\n      tag_9\n      swap2\n      swap1\n      tag_10\n      jump\t// in\n    tag_9:\n      mload(0x40)\n      dup1\n      swap2\n      sub\n      swap1\n      return\n        /* \"contracts/Identity.sol\":128:149  bool public isWorking */\n    tag_4:\n      tag_11\n      tag_12\n      jump\t// in\n    tag_11:\n      mload(0x40)\n      tag_13\n      swap2\n      swap1\n      tag_14\n      jump\t// in\n    tag_13:\n      mload(0x40)\n      dup1\n      swap2\n      sub\n      swap1\n      return\n        /* \"contracts/Identity.sol\":101:121  uint public idNumber */\n    tag_5:\n      tag_15\n      tag_16\n      jump\t// in\n    tag_15:\n      mload(0x40)\n      tag_17\n      swap2\n      swap1\n      tag_18\n      jump\t// in\n    tag_17:\n      mload(0x40)\n      dup1\n      swap2\n      sub\n      swap1\n      return\n        /* \"contracts/Identity.sol\":181:202  address public wallet */\n    tag_6:\n      tag_19\n      tag_20\n      jump\t// in\n    tag_19:\n      mload(0x40)\n      tag_21\n      swap2\n      swap1\n      tag_22\n      jump\t// in\n    tag_21:\n      mload(0x40)\n      dup1\n      swap2\n      sub\n      swap1\n      return\n        /* \"contracts/Identity.sol\":156:174  string public name */\n    tag_8:\n      0x02\n      dup1\n      sload\n      tag_23\n      swap1\n      tag_24\n      jump\t// in\n    tag_23:\n      dup1\n      0x1f\n      add\n      0x20\n      dup1\n      swap2\n      div\n      mul\n      0x20\n      add\n      mload(0x40)\n      swap1\n      dup2\n      add\n      0x40\n      mstore\n      dup1\n      swap3\n      swap2\n      swap1\n      dup2\n      dup2\n      mstore\n      0x20\n      add\n      dup3\n      dup1\n      sload\n      tag_25\n      swap1\n      tag_24\n      jump\t// in\n    tag_25:\n      dup1\n      iszero\n      tag_26\n      jumpi\n      dup1\n      0x1f\n      lt\n      tag_27\n      jumpi\n      0x0100\n      dup1\n      dup4\n      sload\n      div\n      mul\n      dup4\n      mstore\n      swap2\n      0x20\n      add\n      swap2\n      jump(tag_26)\n    tag_27:\n      dup3\n      add\n      swap2\n      swap1\n      0x00\n      mstore\n      keccak256(0x00, 0x20)\n      swap1\n    tag_28:\n      dup2\n      sload\n      dup2\n      mstore\n      swap1\n      0x01\n      add\n      swap1\n      0x20\n      add\n      dup1\n      dup4\n      gt\n      tag_28\n      jumpi\n      dup3\n      swap1\n      sub\n      0x1f\n      and\n      dup3\n      add\n      swap2\n    tag_26:\n      pop\n      pop\n      pop\n      pop\n      pop\n      dup2\n      jump\t// out\n        /* \"contracts/Identity.sol\":128:149  bool public isWorking */\n    tag_12:\n      0x01\n      0x00\n      swap1\n      sload\n      swap1\n      0x0100\n      exp\n      swap1\n      div\n      0xff\n      and\n      dup2\n      jump\t// out\n        /* \"contracts/Identity.sol\":101:121  uint public idNumber */\n    tag_16:\n      sload(0x00)\n      dup2\n      jump\t// out\n        /* \"contracts/Identity.sol\":181:202  address public wallet */\n    tag_20:\n      0x03\n      0x00\n      swap1\n      sload\n      swap1\n      0x0100\n      exp\n      swap1\n      div\n      0xffffffffffffffffffffffffffffffffffffffff\n      and\n      dup2\n      jump\t// out\n        /* \"#utility.yul\":7:125   */\n    tag_30:\n        /* \"#utility.yul\":94:118   */\n      tag_32\n        /* \"#utility.yul\":112:117   */\n      dup2\n        /* \"#utility.yul\":94:118   */\n      tag_33\n      jump\t// in\n    tag_32:\n        /* \"#utility.yul\":89:92   */\n      dup3\n        /* \"#utility.yul\":82:119   */\n      mstore\n        /* \"#utility.yul\":7:125   */\n      pop\n      pop\n      jump\t// out\n        /* \"#utility.yul\":131:240   */\n    tag_34:\n        /* \"#utility.yul\":212:233   */\n      tag_36\n        /* \"#utility.yul\":227:232   */\n      dup2\n        /* \"#utility.yul\":212:233   */\n      tag_37\n      jump\t// in\n    tag_36:\n        /* \"#utility.yul\":207:210   */\n      dup3\n        /* \"#utility.yul\":200:234   */\n      mstore\n        /* \"#utility.yul\":131:240   */\n      pop\n      pop\n      jump\t// out\n        /* \"#utility.yul\":246:610   */\n    tag_38:\n        /* \"#utility.yul\":334:337   */\n      0x00\n        /* \"#utility.yul\":362:401   */\n      tag_40\n        /* \"#utility.yul\":395:400   */\n      dup3\n        /* \"#utility.yul\":362:401   */\n      tag_41\n      jump\t// in\n    tag_40:\n        /* \"#utility.yul\":417:488   */\n      tag_42\n        /* \"#utility.yul\":481:487   */\n      dup2\n        /* \"#utility.yul\":476:479   */\n      dup6\n        /* \"#utility.yul\":417:488   */\n      tag_43\n      jump\t// in\n    tag_42:\n        /* \"#utility.yul\":410:488   */\n      swap4\n      pop\n        /* \"#utility.yul\":497:549   */\n      tag_44\n        /* \"#utility.yul\":542:548   */\n      dup2\n        /* \"#utility.yul\":537:540   */\n      dup6\n        /* \"#utility.yul\":530:534   */\n      0x20\n        /* \"#utility.yul\":523:528   */\n      dup7\n        /* \"#utility.yul\":519:535   */\n      add\n        /* \"#utility.yul\":497:549   */\n      tag_45\n      jump\t// in\n    tag_44:\n        /* \"#utility.yul\":574:603   */\n      tag_46\n        /* \"#utility.yul\":596:602   */\n      dup2\n        /* \"#utility.yul\":574:603   */\n      tag_47\n      jump\t// in\n    tag_46:\n        /* \"#utility.yul\":569:572   */\n      dup5\n        /* \"#utility.yul\":565:604   */\n      add\n        /* \"#utility.yul\":558:604   */\n      swap2\n      pop\n        /* \"#utility.yul\":338:610   */\n      pop\n        /* \"#utility.yul\":246:610   */\n      swap3\n      swap2\n      pop\n      pop\n      jump\t// out\n        /* \"#utility.yul\":616:734   */\n    tag_48:\n        /* \"#utility.yul\":703:727   */\n      tag_50\n        /* \"#utility.yul\":721:726   */\n      dup2\n        /* \"#utility.yul\":703:727   */\n      tag_51\n      jump\t// in\n    tag_50:\n        /* \"#utility.yul\":698:701   */\n      dup3\n        /* \"#utility.yul\":691:728   */\n      mstore\n        /* \"#utility.yul\":616:734   */\n      pop\n      pop\n      jump\t// out\n        /* \"#utility.yul\":740:962   */\n    tag_22:\n        /* \"#utility.yul\":833:837   */\n      0x00\n        /* \"#utility.yul\":871:873   */\n      0x20\n        /* \"#utility.yul\":860:869   */\n      dup3\n        /* \"#utility.yul\":856:874   */\n      add\n        /* \"#utility.yul\":848:874   */\n      swap1\n      pop\n        /* \"#utility.yul\":884:955   */\n      tag_53\n        /* \"#utility.yul\":952:953   */\n      0x00\n        /* \"#utility.yul\":941:950   */\n      dup4\n        /* \"#utility.yul\":937:954   */\n      add\n        /* \"#utility.yul\":928:934   */\n      dup5\n        /* \"#utility.yul\":884:955   */\n      tag_30\n      jump\t// in\n    tag_53:\n        /* \"#utility.yul\":740:962   */\n      swap3\n      swap2\n      pop\n      pop\n      jump\t// out\n        /* \"#utility.yul\":968:1178   */\n    tag_14:\n        /* \"#utility.yul\":1055:1059   */\n      0x00\n        /* \"#utility.yul\":1093:1095   */\n      0x20\n        /* \"#utility.yul\":1082:1091   */\n      dup3\n        /* \"#utility.yul\":1078:1096   */\n      add\n        /* \"#utility.yul\":1070:1096   */\n      swap1\n      pop\n        /* \"#utility.yul\":1106:1171   */\n      tag_55\n        /* \"#utility.yul\":1168:1169   */\n      0x00\n        /* \"#utility.yul\":1157:1166   */\n      dup4\n        /* \"#utility.yul\":1153:1170   */\n      add\n        /* \"#utility.yul\":1144:1150   */\n      dup5\n        /* \"#utility.yul\":1106:1171   */\n      tag_34\n      jump\t// in\n    tag_55:\n        /* \"#utility.yul\":968:1178   */\n      swap3\n      swap2\n      pop\n      pop\n      jump\t// out\n        /* \"#utility.yul\":1184:1497   */\n    tag_10:\n        /* \"#utility.yul\":1297:1301   */\n      0x00\n        /* \"#utility.yul\":1335:1337   */\n      0x20\n        /* \"#utility.yul\":1324:1333   */\n      dup3\n        /* \"#utility.yul\":1320:1338   */\n      add\n        /* \"#utility.yul\":1312:1338   */\n      swap1\n      pop\n        /* \"#utility.yul\":1384:1393   */\n      dup2\n        /* \"#utility.yul\":1378:1382   */\n      dup2\n        /* \"#utility.yul\":1374:1394   */\n      sub\n        /* \"#utility.yul\":1370:1371   */\n      0x00\n        /* \"#utility.yul\":1359:1368   */\n      dup4\n        /* \"#utility.yul\":1355:1372   */\n      add\n        /* \"#utility.yul\":1348:1395   */\n      mstore\n        /* \"#utility.yul\":1412:1490   */\n      tag_57\n        /* \"#utility.yul\":1485:1489   */\n      dup2\n        /* \"#utility.yul\":1476:1482   */\n      dup5\n        /* \"#utility.yul\":1412:1490   */\n      tag_38\n      jump\t// in\n    tag_57:\n        /* \"#utility.yul\":1404:1490   */\n      swap1\n      pop\n        /* \"#utility.yul\":1184:1497   */\n      swap3\n      swap2\n      pop\n      pop\n      jump\t// out\n        /* \"#utility.yul\":1503:1725   */\n    tag_18:\n        /* \"#utility.yul\":1596:1600   */\n      0x00\n        /* \"#utility.yul\":1634:1636   */\n      0x20\n        /* \"#utility.yul\":1623:1632   */\n      dup3\n        /* \"#utility.yul\":1619:1637   */\n      add\n        /* \"#utility.yul\":1611:1637   */\n      swap1\n      pop\n        /* \"#utility.yul\":1647:1718   */\n      tag_59\n        /* \"#utility.yul\":1715:1716   */\n      0x00\n        /* \"#utility.yul\":1704:1713   */\n      dup4\n        /* \"#utility.yul\":1700:1717   */\n      add\n        /* \"#utility.yul\":1691:1697   */\n      dup5\n        /* \"#utility.yul\":1647:1718   */\n      tag_48\n      jump\t// in\n    tag_59:\n        /* \"#utility.yul\":1503:1725   */\n      swap3\n      swap2\n      pop\n      pop\n      jump\t// out\n        /* \"#utility.yul\":1731:1830   */\n    tag_41:\n        /* \"#utility.yul\":1783:1789   */\n      0x00\n        /* \"#utility.yul\":1817:1822   */\n      dup2\n        /* \"#utility.yul\":1811:1823   */\n      mload\n        /* \"#utility.yul\":1801:1823   */\n      swap1\n      pop\n        /* \"#utility.yul\":1731:1830   */\n      swap2\n      swap1\n      pop\n      jump\t// out\n        /* \"#utility.yul\":1836:2005   */\n    tag_43:\n        /* \"#utility.yul\":1920:1931   */\n      0x00\n        /* \"#utility.yul\":1954:1960   */\n      dup3\n        /* \"#utility.yul\":1949:1952   */\n      dup3\n        /* \"#utility.yul\":1942:1961   */\n      mstore\n        /* \"#utility.yul\":1994:1998   */\n      0x20\n        /* \"#utility.yul\":1989:1992   */\n      dup3\n        /* \"#utility.yul\":1985:1999   */\n      add\n        /* \"#utility.yul\":1970:1999   */\n      swap1\n      pop\n        /* \"#utility.yul\":1836:2005   */\n      swap3\n      swap2\n      pop\n      pop\n      jump\t// out\n        /* \"#utility.yul\":2011:2107   */\n    tag_33:\n        /* \"#utility.yul\":2048:2055   */\n      0x00\n        /* \"#utility.yul\":2077:2101   */\n      tag_63\n        /* \"#utility.yul\":2095:2100   */\n      dup3\n        /* \"#utility.yul\":2077:2101   */\n      tag_64\n      jump\t// in\n    tag_63:\n        /* \"#utility.yul\":2066:2101   */\n      swap1\n      pop\n        /* \"#utility.yul\":2011:2107   */\n      swap2\n      swap1\n      pop\n      jump\t// out\n        /* \"#utility.yul\":2113:2203   */\n    tag_37:\n        /* \"#utility.yul\":2147:2154   */\n      0x00\n        /* \"#utility.yul\":2190:2195   */\n      dup2\n        /* \"#utility.yul\":2183:2196   */\n      iszero\n        /* \"#utility.yul\":2176:2197   */\n      iszero\n        /* \"#utility.yul\":2165:2197   */\n      swap1\n      pop\n        /* \"#utility.yul\":2113:2203   */\n      swap2\n      swap1\n      pop\n      jump\t// out\n        /* \"#utility.yul\":2209:2335   */\n    tag_64:\n        /* \"#utility.yul\":2246:2253   */\n      0x00\n        /* \"#utility.yul\":2286:2328   */\n      0xffffffffffffffffffffffffffffffffffffffff\n        /* \"#utility.yul\":2279:2284   */\n      dup3\n        /* \"#utility.yul\":2275:2329   */\n      and\n        /* \"#utility.yul\":2264:2329   */\n      swap1\n      pop\n        /* \"#utility.yul\":2209:2335   */\n      swap2\n      swap1\n      pop\n      jump\t// out\n        /* \"#utility.yul\":2341:2418   */\n    tag_51:\n        /* \"#utility.yul\":2378:2385   */\n      0x00\n        /* \"#utility.yul\":2407:2412   */\n      dup2\n        /* \"#utility.yul\":2396:2412   */\n      swap1\n      pop\n        /* \"#utility.yul\":2341:2418   */\n      swap2\n      swap1\n      pop\n      jump\t// out\n        /* \"#utility.yul\":2424:2731   */\n    tag_45:\n        /* \"#utility.yul\":2492:2493   */\n      0x00\n        /* \"#utility.yul\":2502:2615   */\n    tag_69:\n        /* \"#utility.yul\":2516:2522   */\n      dup4\n        /* \"#utility.yul\":2513:2514   */\n      dup2\n        /* \"#utility.yul\":2510:2523   */\n      lt\n        /* \"#utility.yul\":2502:2615   */\n      iszero\n      tag_71\n      jumpi\n        /* \"#utility.yul\":2601:2602   */\n      dup1\n        /* \"#utility.yul\":2596:2599   */\n      dup3\n        /* \"#utility.yul\":2592:2603   */\n      add\n        /* \"#utility.yul\":2586:2604   */\n      mload\n        /* \"#utility.yul\":2582:2583   */\n      dup2\n        /* \"#utility.yul\":2577:2580   */\n      dup5\n        /* \"#utility.yul\":2573:2584   */\n      add\n        /* \"#utility.yul\":2566:2605   */\n      mstore\n        /* \"#utility.yul\":2538:2540   */\n      0x20\n        /* \"#utility.yul\":2535:2536   */\n      dup2\n        /* \"#utility.yul\":2531:2541   */\n      add\n        /* \"#utility.yul\":2526:2541   */\n      swap1\n      pop\n        /* \"#utility.yul\":2502:2615   */\n      jump(tag_69)\n    tag_71:\n        /* \"#utility.yul\":2633:2639   */\n      dup4\n        /* \"#utility.yul\":2630:2631   */\n      dup2\n        /* \"#utility.yul\":2627:2640   */\n      gt\n        /* \"#utility.yul\":2624:2725   */\n      iszero\n      tag_72\n      jumpi\n        /* \"#utility.yul\":2713:2714   */\n      0x00\n        /* \"#utility.yul\":2704:2710   */\n      dup5\n        /* \"#utility.yul\":2699:2702   */\n      dup5\n        /* \"#utility.yul\":2695:2711   */\n      add\n        /* \"#utility.yul\":2688:2715   */\n      mstore\n        /* \"#utility.yul\":2624:2725   */\n    tag_72:\n        /* \"#utility.yul\":2473:2731   */\n      pop\n        /* \"#utility.yul\":2424:2731   */\n      pop\n      pop\n      pop\n      jump\t// out\n        /* \"#utility.yul\":2737:3057   */\n    tag_24:\n        /* \"#utility.yul\":2781:2787   */\n      0x00\n        /* \"#utility.yul\":2818:2819   */\n      0x02\n        /* \"#utility.yul\":2812:2816   */\n      dup3\n        /* \"#utility.yul\":2808:2820   */\n      div\n        /* \"#utility.yul\":2798:2820   */\n      swap1\n      pop\n        /* \"#utility.yul\":2865:2866   */\n      0x01\n        /* \"#utility.yul\":2859:2863   */\n      dup3\n        /* \"#utility.yul\":2855:2867   */\n      and\n        /* \"#utility.yul\":2886:2904   */\n      dup1\n        /* \"#utility.yul\":2876:2957   */\n      tag_74\n      jumpi\n        /* \"#utility.yul\":2942:2946   */\n      0x7f\n        /* \"#utility.yul\":2934:2940   */\n      dup3\n        /* \"#utility.yul\":2930:2947   */\n      and\n        /* \"#utility.yul\":2920:2947   */\n      swap2\n      pop\n        /* \"#utility.yul\":2876:2957   */\n    tag_74:\n        /* \"#utility.yul\":3004:3006   */\n      0x20\n        /* \"#utility.yul\":2996:3002   */\n      dup3\n        /* \"#utility.yul\":2993:3007   */\n      lt\n        /* \"#utility.yul\":2973:2991   */\n      dup2\n        /* \"#utility.yul\":2970:3008   */\n      eq\n        /* \"#utility.yul\":2967:3051   */\n      iszero\n      tag_75\n      jumpi\n        /* \"#utility.yul\":3023:3041   */\n      tag_76\n      tag_77\n      jump\t// in\n    tag_76:\n        /* \"#utility.yul\":2967:3051   */\n    tag_75:\n        /* \"#utility.yul\":2788:3057   */\n      pop\n        /* \"#utility.yul\":2737:3057   */\n      swap2\n      swap1\n      pop\n      jump\t// out\n        /* \"#utility.yul\":3063:3243   */\n    tag_77:\n        /* \"#utility.yul\":3111:3188   */\n      0x4e487b7100000000000000000000000000000000000000000000000000000000\n        /* \"#utility.yul\":3108:3109   */\n      0x00\n        /* \"#utility.yul\":3101:3189   */\n      mstore\n        /* \"#utility.yul\":3208:3212   */\n      0x22\n        /* \"#utility.yul\":3205:3206   */\n      0x04\n        /* \"#utility.yul\":3198:3213   */\n      mstore\n        /* \"#utility.yul\":3232:3236   */\n      0x24\n        /* \"#utility.yul\":3229:3230   */\n      0x00\n        /* \"#utility.yul\":3222:3237   */\n      revert\n        /* \"#utility.yul\":3249:3351   */\n    tag_47:\n        /* \"#utility.yul\":3290:3296   */\n      0x00\n        /* \"#utility.yul\":3341:3343   */\n      0x1f\n        /* \"#utility.yul\":3337:3344   */\n      not\n        /* \"#utility.yul\":3332:3334   */\n      0x1f\n        /* \"#utility.yul\":3325:3330   */\n      dup4\n        /* \"#utility.yul\":3321:3335   */\n      add\n        /* \"#utility.yul\":3317:3345   */\n      and\n        /* \"#utility.yul\":3307:3345   */\n      swap1\n      pop\n        /* \"#utility.yul\":3249:3351   */\n      swap2\n      swap1\n      pop\n      jump\t// out\n\n    auxdata: 0xa264697066735822122052cb0241ad8209870a1c3dd92b4c06692982e3c98b7faa8e3b678f3d96ab94ee64736f6c63430008070033\n}\n",
				"bytecode": {
					"linkReferences": {},
					"object": "60806040523480156200001157600080fd5b506040516200081e3803806200081e833981810160405281019062000037919062000217565b8260008190555081600160006101000a81548160ff021916908315150217905550806002908051906020019062000070929190620000bb565b5033600360006101000a81548173ffffffffffffffffffffffffffffffffffffffff021916908373ffffffffffffffffffffffffffffffffffffffff16021790555050505062000460565b828054620000c9906200033d565b90600052602060002090601f016020900481019282620000ed576000855562000139565b82601f106200010857805160ff191683800117855562000139565b8280016001018555821562000139579182015b82811115620001385782518255916020019190600101906200011b565b5b5090506200014891906200014c565b5090565b5b80821115620001675760008160009055506001016200014d565b5090565b6000620001826200017c84620002bb565b62000292565b905082815260208101848484011115620001a157620001a06200040c565b5b620001ae84828562000307565b509392505050565b600081519050620001c7816200042c565b92915050565b600082601f830112620001e557620001e462000407565b5b8151620001f78482602086016200016b565b91505092915050565b600081519050620002118162000446565b92915050565b60008060006060848603121562000233576200023262000416565b5b6000620002438682870162000200565b93505060206200025686828701620001b6565b925050604084015167ffffffffffffffff8111156200027a576200027962000411565b5b6200028886828701620001cd565b9150509250925092565b60006200029e620002b1565b9050620002ac828262000373565b919050565b6000604051905090565b600067ffffffffffffffff821115620002d957620002d8620003d8565b5b620002e4826200041b565b9050602081019050919050565b60008115159050919050565b6000819050919050565b60005b83811015620003275780820151818401526020810190506200030a565b8381111562000337576000848401525b50505050565b600060028204905060018216806200035657607f821691505b602082108114156200036d576200036c620003a9565b5b50919050565b6200037e826200041b565b810181811067ffffffffffffffff82111715620003a0576200039f620003d8565b5b80604052505050565b7f4e487b7100000000000000000000000000000000000000000000000000000000600052602260045260246000fd5b7f4e487b7100000000000000000000000000000000000000000000000000000000600052604160045260246000fd5b600080fd5b600080fd5b600080fd5b600080fd5b6000601f19601f8301169050919050565b6200043781620002f1565b81146200044357600080fd5b50565b6200045181620002fd565b81146200045d57600080fd5b50565b6103ae80620004706000396000f3fe608060405234801561001057600080fd5b506004361061004c5760003560e01c806306fdde0314610051578063099aea0a1461006f5780633f83ea3b1461008d578063521eb273146100ab575b600080fd5b6100596100c9565b6040516100669190610232565b60405180910390f35b610077610157565b6040516100849190610217565b60405180910390f35b61009561016a565b6040516100a29190610254565b60405180910390f35b6100b3610170565b6040516100c091906101fc565b60405180910390f35b600280546100d690610306565b80601f016020809104026020016040519081016040528092919081815260200182805461010290610306565b801561014f5780601f106101245761010080835404028352916020019161014f565b820191906000526020600020905b81548152906001019060200180831161013257829003601f168201915b505050505081565b600160009054906101000a900460ff1681565b60005481565b600360009054906101000a900473ffffffffffffffffffffffffffffffffffffffff1681565b61019f8161028b565b82525050565b6101ae8161029d565b82525050565b60006101bf8261026f565b6101c9818561027a565b93506101d98185602086016102d3565b6101e281610367565b840191505092915050565b6101f6816102c9565b82525050565b60006020820190506102116000830184610196565b92915050565b600060208201905061022c60008301846101a5565b92915050565b6000602082019050818103600083015261024c81846101b4565b905092915050565b600060208201905061026960008301846101ed565b92915050565b600081519050919050565b600082825260208201905092915050565b6000610296826102a9565b9050919050565b60008115159050919050565b600073ffffffffffffffffffffffffffffffffffffffff82169050919050565b6000819050919050565b60005b838110156102f15780820151818401526020810190506102d6565b83811115610300576000848401525b50505050565b6000600282049050600182168061031e57607f821691505b6020821081141561033257610331610338565b5b50919050565b7f4e487b7100000000000000000000000000000000000000000000000000000000600052602260045260246000fd5b6000601f19601f830116905091905056fea264697066735822122052cb0241ad8209870a1c3dd92b4c06692982e3c98b7faa8e3b678f3d96ab94ee64736f6c63430008070033",
					"opcodes": "PUSH1 0x80 PUSH1 0x40 MSTORE CALLVALUE DUP1 ISZERO PUSH3 0x11 JUMPI PUSH1 0x0 DUP1 REVERT JUMPDEST POP PUSH1 0x40 MLOAD PUSH3 0x81E CODESIZE SUB DUP1 PUSH3 0x81E DUP4 CODECOPY DUP2 DUP2 ADD PUSH1 0x40 MSTORE DUP2 ADD SWAP1 PUSH3 0x37 SWAP2 SWAP1 PUSH3 0x217 JUMP JUMPDEST DUP3 PUSH1 0x0 DUP2 SWAP1 SSTORE POP DUP2 PUSH1 0x1 PUSH1 0x0 PUSH2 0x100 EXP DUP2 SLOAD DUP2 PUSH1 0xFF MUL NOT AND SWAP1 DUP4 ISZERO ISZERO MUL OR SWAP1 SSTORE POP DUP1 PUSH1 0x2 SWAP1 DUP1 MLOAD SWAP1 PUSH1 0x20 ADD SWAP1 PUSH3 0x70 SWAP3 SWAP2 SWAP1 PUSH3 0xBB JUMP JUMPDEST POP CALLER PUSH1 0x3 PUSH1 0x0 PUSH2 0x100 EXP DUP2 SLOAD DUP2 PUSH20 0xFFFFFFFFFFFFFFFFFFFFFFFFFFFFFFFFFFFFFFFF MUL NOT AND SWAP1 DUP4 PUSH20 0xFFFFFFFFFFFFFFFFFFFFFFFFFFFFFFFFFFFFFFFF AND MUL OR SWAP1 SSTORE POP POP POP POP PUSH3 0x460 JUMP JUMPDEST DUP3 DUP1 SLOAD PUSH3 0xC9 SWAP1 PUSH3 0x33D JUMP JUMPDEST SWAP1 PUSH1 0x0 MSTORE PUSH1 0x20 PUSH1 0x0 KECCAK256 SWAP1 PUSH1 0x1F ADD PUSH1 0x20 SWAP1 DIV DUP2 ADD SWAP3 DUP3 PUSH3 0xED JUMPI PUSH1 0x0 DUP6 SSTORE PUSH3 0x139 JUMP JUMPDEST DUP3 PUSH1 0x1F LT PUSH3 0x108 JUMPI DUP1 MLOAD PUSH1 0xFF NOT AND DUP4 DUP1 ADD OR DUP6 SSTORE PUSH3 0x139 JUMP JUMPDEST DUP3 DUP1 ADD PUSH1 0x1 ADD DUP6 SSTORE DUP3 ISZERO PUSH3 0x139 JUMPI SWAP2 DUP3 ADD JUMPDEST DUP3 DUP2 GT ISZERO PUSH3 0x138 JUMPI DUP3 MLOAD DUP3 SSTORE SWAP2 PUSH1 0x20 ADD SWAP2 SWAP1 PUSH1 0x1 ADD SWAP1 PUSH3 0x11B JUMP JUMPDEST JUMPDEST POP SWAP1 POP PUSH3 0x148 SWAP2 SWAP1 PUSH3 0x14C JUMP JUMPDEST POP SWAP1 JUMP JUMPDEST JUMPDEST DUP1 DUP3 GT ISZERO PUSH3 0x167 JUMPI PUSH1 0x0 DUP2 PUSH1 0x0 SWAP1 SSTORE POP PUSH1 0x1 ADD PUSH3 0x14D JUMP JUMPDEST POP SWAP1 JUMP JUMPDEST PUSH1 0x0 PUSH3 0x182 PUSH3 0x17C DUP5 PUSH3 0x2BB JUMP JUMPDEST PUSH3 0x292 JUMP JUMPDEST SWAP1 POP DUP3 DUP2 MSTORE PUSH1 0x20 DUP2 ADD DUP5 DUP5 DUP5 ADD GT ISZERO PUSH3 0x1A1 JUMPI PUSH3 0x1A0 PUSH3 0x40C JUMP JUMPDEST JUMPDEST PUSH3 0x1AE DUP5 DUP3 DUP6 PUSH3 0x307 JUMP JUMPDEST POP SWAP4 SWAP3 POP POP POP JUMP JUMPDEST PUSH1 0x0 DUP2 MLOAD SWAP1 POP PUSH3 0x1C7 DUP2 PUSH3 0x42C JUMP JUMPDEST SWAP3 SWAP2 POP POP JUMP JUMPDEST PUSH1 0x0 DUP3 PUSH1 0x1F DUP4 ADD SLT PUSH3 0x1E5 JUMPI PUSH3 0x1E4 PUSH3 0x407 JUMP JUMPDEST JUMPDEST DUP2 MLOAD PUSH3 0x1F7 DUP5 DUP3 PUSH1 0x20 DUP7 ADD PUSH3 0x16B JUMP JUMPDEST SWAP2 POP POP SWAP3 SWAP2 POP POP JUMP JUMPDEST PUSH1 0x0 DUP2 MLOAD SWAP1 POP PUSH3 0x211 DUP2 PUSH3 0x446 JUMP JUMPDEST SWAP3 SWAP2 POP POP JUMP JUMPDEST PUSH1 0x0 DUP1 PUSH1 0x0 PUSH1 0x60 DUP5 DUP7 SUB SLT ISZERO PUSH3 0x233 JUMPI PUSH3 0x232 PUSH3 0x416 JUMP JUMPDEST JUMPDEST PUSH1 0x0 PUSH3 0x243 DUP7 DUP3 DUP8 ADD PUSH3 0x200 JUMP JUMPDEST SWAP4 POP POP PUSH1 0x20 PUSH3 0x256 DUP7 DUP3 DUP8 ADD PUSH3 0x1B6 JUMP JUMPDEST SWAP3 POP POP PUSH1 0x40 DUP5 ADD MLOAD PUSH8 0xFFFFFFFFFFFFFFFF DUP2 GT ISZERO PUSH3 0x27A JUMPI PUSH3 0x279 PUSH3 0x411 JUMP JUMPDEST JUMPDEST PUSH3 0x288 DUP7 DUP3 DUP8 ADD PUSH3 0x1CD JUMP JUMPDEST SWAP2 POP POP SWAP3 POP SWAP3 POP SWAP3 JUMP JUMPDEST PUSH1 0x0 PUSH3 0x29E PUSH3 0x2B1 JUMP JUMPDEST SWAP1 POP PUSH3 0x2AC DUP3 DUP3 PUSH3 0x373 JUMP JUMPDEST SWAP2 SWAP1 POP JUMP JUMPDEST PUSH1 0x0 PUSH1 0x40 MLOAD SWAP1 POP SWAP1 JUMP JUMPDEST PUSH1 0x0 PUSH8 0xFFFFFFFFFFFFFFFF DUP3 GT ISZERO PUSH3 0x2D9 JUMPI PUSH3 0x2D8 PUSH3 0x3D8 JUMP JUMPDEST JUMPDEST PUSH3 0x2E4 DUP3 PUSH3 0x41B JUMP JUMPDEST SWAP1 POP PUSH1 0x20 DUP2 ADD SWAP1 POP SWAP2 SWAP1 POP JUMP JUMPDEST PUSH1 0x0 DUP2 ISZERO ISZERO SWAP1 POP SWAP2 SWAP1 POP JUMP JUMPDEST PUSH1 0x0 DUP2 SWAP1 POP SWAP2 SWAP1 POP JUMP JUMPDEST PUSH1 0x0 JUMPDEST DUP4 DUP2 LT ISZERO PUSH3 0x327 JUMPI DUP1 DUP3 ADD MLOAD DUP2 DUP5 ADD MSTORE PUSH1 0x20 DUP2 ADD SWAP1 POP PUSH3 0x30A JUMP JUMPDEST DUP4 DUP2 GT ISZERO PUSH3 0x337 JUMPI PUSH1 0x0 DUP5 DUP5 ADD MSTORE JUMPDEST POP POP POP POP JUMP JUMPDEST PUSH1 0x0 PUSH1 0x2 DUP3 DIV SWAP1 POP PUSH1 0x1 DUP3 AND DUP1 PUSH3 0x356 JUMPI PUSH1 0x7F DUP3 AND SWAP2 POP JUMPDEST PUSH1 0x20 DUP3 LT DUP2 EQ ISZERO PUSH3 0x36D JUMPI PUSH3 0x36C PUSH3 0x3A9 JUMP JUMPDEST JUMPDEST POP SWAP2 SWAP1 POP JUMP JUMPDEST PUSH3 0x37E DUP3 PUSH3 0x41B JUMP JUMPDEST DUP2 ADD DUP2 DUP2 LT PUSH8 0xFFFFFFFFFFFFFFFF DUP3 GT OR ISZERO PUSH3 0x3A0 JUMPI PUSH3 0x39F PUSH3 0x3D8 JUMP JUMPDEST JUMPDEST DUP1 PUSH1 0x40 MSTORE POP POP POP JUMP JUMPDEST PUSH32 0x4E487B7100000000000000000000000000000000000000000000000000000000 PUSH1 0x0 MSTORE PUSH1 0x22 PUSH1 0x4 MSTORE PUSH1 0x24 PUSH1 0x0 REVERT JUMPDEST PUSH32 0x4E487B7100000000000000000000000000000000000000000000000000000000 PUSH1 0x0 MSTORE PUSH1 0x41 PUSH1 0x4 MSTORE PUSH1 0x24 PUSH1 0x0 REVERT JUMPDEST PUSH1 0x0 DUP1 REVERT JUMPDEST PUSH1 0x0 DUP1 REVERT JUMPDEST PUSH1 0x0 DUP1 REVERT JUMPDEST PUSH1 0x0 DUP1 REVERT JUMPDEST PUSH1 0x0 PUSH1 0x1F NOT PUSH1 0x1F DUP4 ADD AND SWAP1 POP SWAP2 SWAP1 POP JUMP JUMPDEST PUSH3 0x437 DUP2 PUSH3 0x2F1 JUMP JUMPDEST DUP2 EQ PUSH3 0x443 JUMPI PUSH1 0x0 DUP1 REVERT JUMPDEST POP JUMP JUMPDEST PUSH3 0x451 DUP2 PUSH3 0x2FD JUMP JUMPDEST DUP2 EQ PUSH3 0x45D JUMPI PUSH1 0x0 DUP1 REVERT JUMPDEST POP JUMP JUMPDEST PUSH2 0x3AE DUP1 PUSH3 0x470 PUSH1 0x0 CODECOPY PUSH1 0x0 RETURN INVALID PUSH1 0x80 PUSH1 0x40 MSTORE CALLVALUE DUP1 ISZERO PUSH2 0x10 JUMPI PUSH1 0x0 DUP1 REVERT JUMPDEST POP PUSH1 0x4 CALLDATASIZE LT PUSH2 0x4C JUMPI PUSH1 0x0 CALLDATALOAD PUSH1 0xE0 SHR DUP1 PUSH4 0x6FDDE03 EQ PUSH2 0x51 JUMPI DUP1 PUSH4 0x99AEA0A EQ PUSH2 0x6F JUMPI DUP1 PUSH4 0x3F83EA3B EQ PUSH2 0x8D JUMPI DUP1 PUSH4 0x521EB273 EQ PUSH2 0xAB JUMPI JUMPDEST PUSH1 0x0 DUP1 REVERT JUMPDEST PUSH2 0x59 PUSH2 0xC9 JUMP JUMPDEST PUSH1 0x40 MLOAD PUSH2 0x66 SWAP2 SWAP1 PUSH2 0x232 JUMP JUMPDEST PUSH1 0x40 MLOAD DUP1 SWAP2 SUB SWAP1 RETURN JUMPDEST PUSH2 0x77 PUSH2 0x157 JUMP JUMPDEST PUSH1 0x40 MLOAD PUSH2 0x84 SWAP2 SWAP1 PUSH2 0x217 JUMP JUMPDEST PUSH1 0x40 MLOAD DUP1 SWAP2 SUB SWAP1 RETURN JUMPDEST PUSH2 0x95 PUSH2 0x16A JUMP JUMPDEST PUSH1 0x40 MLOAD PUSH2 0xA2 SWAP2 SWAP1 PUSH2 0x254 JUMP JUMPDEST PUSH1 0x40 MLOAD DUP1 SWAP2 SUB SWAP1 RETURN JUMPDEST PUSH2 0xB3 PUSH2 0x170 JUMP JUMPDEST PUSH1 0x40 MLOAD PUSH2 0xC0 SWAP2 SWAP1 PUSH2 0x1FC JUMP JUMPDEST PUSH1 0x40 MLOAD DUP1 SWAP2 SUB SWAP1 RETURN JUMPDEST PUSH1 0x2 DUP1 SLOAD PUSH2 0xD6 SWAP1 PUSH2 0x306 JUMP JUMPDEST DUP1 PUSH1 0x1F ADD PUSH1 0x20 DUP1 SWAP2 DIV MUL PUSH1 0x20 ADD PUSH1 0x40 MLOAD SWAP1 DUP2 ADD PUSH1 0x40 MSTORE DUP1 SWAP3 SWAP2 SWAP1 DUP2 DUP2 MSTORE PUSH1 0x20 ADD DUP3 DUP1 SLOAD PUSH2 0x102 SWAP1 PUSH2 0x306 JUMP JUMPDEST DUP1 ISZERO PUSH2 0x14F JUMPI DUP1 PUSH1 0x1F LT PUSH2 0x124 JUMPI PUSH2 0x100 DUP1 DUP4 SLOAD DIV MUL DUP4 MSTORE SWAP2 PUSH1 0x20 ADD SWAP2 PUSH2 0x14F JUMP JUMPDEST DUP3 ADD SWAP2 SWAP1 PUSH1 0x0 MSTORE PUSH1 0x20 PUSH1 0x0 KECCAK256 SWAP1 JUMPDEST DUP2 SLOAD DUP2 MSTORE SWAP1 PUSH1 0x1 ADD SWAP1 PUSH1 0x20 ADD DUP1 DUP4 GT PUSH2 0x132 JUMPI DUP3 SWAP1 SUB PUSH1 0x1F AND DUP3 ADD SWAP2 JUMPDEST POP POP POP POP POP DUP2 JUMP JUMPDEST PUSH1 0x1 PUSH1 0x0 SWAP1 SLOAD SWAP1 PUSH2 0x100 EXP SWAP1 DIV PUSH1 0xFF AND DUP2 JUMP JUMPDEST PUSH1 0x0 SLOAD DUP2 JUMP JUMPDEST PUSH1 0x3 PUSH1 0x0 SWAP1 SLOAD SWAP1 PUSH2 0x100 EXP SWAP1 DIV PUSH20 0xFFFFFFFFFFFFFFFFFFFFFFFFFFFFFFFFFFFFFFFF AND DUP2 JUMP JUMPDEST PUSH2 0x19F DUP2 PUSH2 0x28B JUMP JUMPDEST DUP3 MSTORE POP POP JUMP JUMPDEST PUSH2 0x1AE DUP2 PUSH2 0x29D JUMP JUMPDEST DUP3 MSTORE POP POP JUMP JUMPDEST PUSH1 0x0 PUSH2 0x1BF DUP3 PUSH2 0x26F JUMP JUMPDEST PUSH2 0x1C9 DUP2 DUP6 PUSH2 0x27A JUMP JUMPDEST SWAP4 POP PUSH2 0x1D9 DUP2 DUP6 PUSH1 0x20 DUP7 ADD PUSH2 0x2D3 JUMP JUMPDEST PUSH2 0x1E2 DUP2 PUSH2 0x367 JUMP JUMPDEST DUP5 ADD SWAP2 POP POP SWAP3 SWAP2 POP POP JUMP JUMPDEST PUSH2 0x1F6 DUP2 PUSH2 0x2C9 JUMP JUMPDEST DUP3 MSTORE POP POP JUMP JUMPDEST PUSH1 0x0 PUSH1 0x20 DUP3 ADD SWAP1 POP PUSH2 0x211 PUSH1 0x0 DUP4 ADD DUP5 PUSH2 0x196 JUMP JUMPDEST SWAP3 SWAP2 POP POP JUMP JUMPDEST PUSH1 0x0 PUSH1 0x20 DUP3 ADD SWAP1 POP PUSH2 0x22C PUSH1 0x0 DUP4 ADD DUP5 PUSH2 0x1A5 JUMP JUMPDEST SWAP3 SWAP2 POP POP JUMP JUMPDEST PUSH1 0x0 PUSH1 0x20 DUP3 ADD SWAP1 POP DUP2 DUP2 SUB PUSH1 0x0 DUP4 ADD MSTORE PUSH2 0x24C DUP2 DUP5 PUSH2 0x1B4 JUMP JUMPDEST SWAP1 POP SWAP3 SWAP2 POP POP JUMP JUMPDEST PUSH1 0x0 PUSH1 0x20 DUP3 ADD SWAP1 POP PUSH2 0x269 PUSH1 0x0 DUP4 ADD DUP5 PUSH2 0x1ED JUMP JUMPDEST SWAP3 SWAP2 POP POP JUMP JUMPDEST PUSH1 0x0 DUP2 MLOAD SWAP1 POP SWAP2 SWAP1 POP JUMP JUMPDEST PUSH1 0x0 DUP3 DUP3 MSTORE PUSH1 0x20 DUP3 ADD SWAP1 POP SWAP3 SWAP2 POP POP JUMP JUMPDEST PUSH1 0x0 PUSH2 0x296 DUP3 PUSH2 0x2A9 JUMP JUMPDEST SWAP1 POP SWAP2 SWAP1 POP JUMP JUMPDEST PUSH1 0x0 DUP2 ISZERO ISZERO SWAP1 POP SWAP2 SWAP1 POP JUMP JUMPDEST PUSH1 0x0 PUSH20 0xFFFFFFFFFFFFFFFFFFFFFFFFFFFFFFFFFFFFFFFF DUP3 AND SWAP1 POP SWAP2 SWAP1 POP JUMP JUMPDEST PUSH1 0x0 DUP2 SWAP1 POP SWAP2 SWAP1 POP JUMP JUMPDEST PUSH1 0x0 JUMPDEST DUP4 DUP2 LT ISZERO PUSH2 0x2F1 JUMPI DUP1 DUP3 ADD MLOAD DUP2 DUP5 ADD MSTORE PUSH1 0x20 DUP2 ADD SWAP1 POP PUSH2 0x2D6 JUMP JUMPDEST DUP4 DUP2 GT ISZERO PUSH2 0x300 JUMPI PUSH1 0x0 DUP5 DUP5 ADD MSTORE JUMPDEST POP POP POP POP JUMP JUMPDEST PUSH1 0x0 PUSH1 0x2 DUP3 DIV SWAP1 POP PUSH1 0x1 DUP3 AND DUP1 PUSH2 0x31E JUMPI PUSH1 0x7F DUP3 AND SWAP2 POP JUMPDEST PUSH1 0x20 DUP3 LT DUP2 EQ ISZERO PUSH2 0x332 JUMPI PUSH2 0x331 PUSH2 0x338 JUMP JUMPDEST JUMPDEST POP SWAP2 SWAP1 POP JUMP JUMPDEST PUSH32 0x4E487B7100000000000000000000000000000000000000000000000000000000 PUSH1 0x0 MSTORE PUSH1 0x22 PUSH1 0x4 MSTORE PUSH1 0x24 PUSH1 0x0 REVERT JUMPDEST PUSH1 0x0 PUSH1 0x1F NOT PUSH1 0x1F DUP4 ADD AND SWAP1 POP SWAP2 SWAP1 POP JUMP INVALID LOG2 PUSH5 0x6970667358 0x22 SLT KECCAK256 MSTORE 0xCB MUL COINBASE 0xAD DUP3 MULMOD DUP8 EXP SHR RETURNDATASIZE 0xD9 0x2B 0x4C MOD PUSH10 0x2982E3C98B7FAA8E3B67 DUP16 RETURNDATASIZE SWAP7 0xAB SWAP5 0xEE PUSH5 0x736F6C6343 STOP ADDMOD SMOD STOP CALLER "
				},
				"gasEstimates": {
					"creation": {
						"codeDepositCost": "188400",
						"executionCost": "infinite",
						"totalCost": "infinite"
					},
					"external": {
						"idNumber()": "2451",
						"isWorking()": "2471",
						"name()": "infinite",
						"wallet()": "2558"
					}
				},
				"methodIdentifiers": {
					"idNumber()": "3f83ea3b",
					"isWorking()": "099aea0a",
					"name()": "06fdde03",
					"wallet()": "521eb273"
				}
			},
			"storageLayout": {
				"storage": [
					{
						"astId": 3,
						"contract": "contracts/Identity.sol:Identity",
						"label": "idNumber",
						"offset": 0,
						"slot": "0",
						"type": "t_uint256"
					},
					{
						"astId": 5,
						"contract": "contracts/Identity.sol:Identity",
						"label": "isWorking",
						"offset": 0,
						"slot": "1",
						"type": "t_bool"
					},
					{
						"astId": 7,
						"contract": "contracts/Identity.sol:Identity",
						"label": "name",
						"offset": 0,
						"slot": "2",
						"type": "t_string_storage"
					},
					{
						"astId": 9,
						"contract": "contracts/Identity.sol:Identity",
						"label": "wallet",
						"offset": 0,
						"slot": "3",
						"type": "t_address"
					}
				],
				"types": {
					"t_address": {
						"encoding": "inplace",
						"label": "address",
						"numberOfBytes": "20"
					},
					"t_bool": {
						"encoding": "inplace",
						"label": "bool",
						"numberOfBytes": "1"
					},
					"t_string_storage": {
						"encoding": "bytes",
						"label": "string",
						"numberOfBytes": "32"
					},
					"t_uint256": {
						"encoding": "inplace",
						"label": "uint256",
						"numberOfBytes": "32"
					}
				}
			},
			"userdoc": {
				"kind": "user",
				"methods": {},
				"version": 1
			}
		}
	}
}